S00F000061726475696E6F2E7372656323
S11300000C9482000C94AA000C94AA000C94AA00EC
S11300100C94AA000C94AA000C94AA000C94AA00B4
S11300200C94AA000C94AA000C94AA000C94AA00A4
S11300300C94AA000C94AA000C94AA000C94AA0094
S11300400C944C060C94AA000C9429090C945B099A
S11300500C94AA000C94AA000C94AA000C94AA0074
S11300600C94AA000C94AA00E6037F03EA0382031B
S1130070850388038C038F039203950398039B03E2
S11300809E03A103A403A803AB03AE03EE03BC03C6
S1130090BF03E403C203E403C603C903CD03E403BB
S11300A0E403D003D403D703DB03DE03E403E10357
S11300B00000000800020100000304070000000023
S11300C0000000000102040810204080010204081E
S11300D0102001020408102004040404040404048D
S11300E002020202020203030303030300000000EE
S11300F0250028002B0000000000240027002A000F
S1130100BD018B0911241FBECFEFD8E0DEBFCDBFE8
S113011013E0A0E0B1E0E6EEFAE102C005900D9232
S1130120A033B107D9F723E0A0E3B3E001C01D92E7
S1130130A93FB207E1F710E0C2E8D0E004C021977C
S1130140FE010E946B0DC038D107C9F70E94B301AC
S11301500C94710D0C941A0C2F923F924F925F9253
S11301606F927F928F929F92AF92BF92CF92DF92C3
S1130170EF92FF920F931F93CF93DF93E42FF52F0A
S1130180419050804F925F92E42FF52F4DB65EB6AA
S1130190419250820C94CC00E62FF72F419050806E
S11301A04DBE5EBE5F904F90E62FF72F4192508276
S11301B0DF91CF911F910F91FF90EF90DF90CF903F
S11301C0BF90AF909F908F907F906F905F904F9073
S11301D03F902F900C94060BE62FF72F41915081FE
S11301E04DBF5EBF0C94070B2F923F924F925F92CC
S11301F06F927F928F929F92AF92BF92CF92DF9233
S1130200EF92FF920F931F93CF93DF93E42FF52F79
S1130210419050804F925F92E42FF52F4DB65EB619
S1130220419250820C94EC00E82FF92F41915081B7
S11302304DBF5EBFE62FF72F09940000CF93CFB7D1
S1130240F89480913303811127C0E2EEF0E08491A9
S1130250EEECF0E09491E82FF0E0EE0FFF1FEA508F
S1130260FF4FA591B491EC91E92321F461E08AE078
S11302700E94A20761E08AE00E9466078CB5806153
S11302808CBD8CB580648CBD61E08DE00E946607F6
S113029061E08BE00E946607809133038F5F809357
S11302A03303CFBFCF91089580E00E94B70A8091B5
S11302B0410381111EC080913F0390914003892B1B
S11302C039F48DB79EB79093400380933F0308950C
S11302D020913F03309140038DB79EB7281739070B
S11302E041F081E08093410361E0809100010C942E
S11302F0A207089526E040E052EC61E070E08BE54F
S113030093E00E94C40841E060E185E393E00E9429
S1130310A505882399F06DE171E08BE593E00E94D7
S1130320FE0966E371E08BE593E00E94FE0964E652
S113033070E080E090E00E94BB06E5CF61E571E0EB
S11303408BE593E00E94FE0969E671E08BE593E09A
S11303500C94FE090E9454018CE298E0892B11F060
S11303600C942C0808950E9402070E947A0180E0F0
S11303700E947E0A80E090E008956AE085E393E0BD
S11303800C949D05CF92EF92FF920F93CF93DF933E
S11303908EE00E94D207843F21E0920724F0BC0142
S11303A0645F714002C060E070E0CB01990F880B7C
S11303B0982F80934203CB01990F880B982F809339
S11303C04303CB01990F880B982F80934403CB01EF
S11303D0990F880B982F80934503990F880B982FBA
S11303E080934603990F880B982F8093470370934B
S11303F04803609349034AE050E08BE593E00E9490
S1130400660A48E050E062E473E08BE593E00E9402
S1130410B80941E050E06EEE71E08BE593E00E9494
S1130420B8098BE593E00E9409088936910561F4C7
S1130430C2E4D3E08BE593E00E940908899383E04A
S1130440CA34D807B9F7EDCFCC24C39482E4E82E9C
S113045083E0F82E08E020E042E050E060E070E045
S113046085E393E00E94390668EE73E080E090E053
S11304700E94BB0680914A0390914B03019690938E
S11304804B0380934A03DF91CF910F91FF90EF903C
S1130490CF900C94DF0A20913203222399F04FB7B6
S11304A0F89420913203213059F42DB32093300372
S11304B03DB320913103209523232DBB4FBF02C0B0
S11304C0409330038CBD9DBD08958EBD00000DB4D6
S11304D007FEFDCF8EB5089580913203882361F025
S11304E09FB7F8942091320380913003213019F49E
S11304F08DBB9FBF08958FBF0895813431F081353E
S113050031F0813331F080E0089582E8089584E881
S1130510089581E80895813431F0813531F08133D3
S113052031F080E0089582E4089584E4089580E43D
S11305300895CF93DF93EC0180E591E00E944B0294
S113054060E08E810E94A20780EC0E94650261E057
S11305508E810E94A2070E946C026AE070E080E033
S113056090E0DF91CF910C94BB061F93CF93DF9360
S1130570EC01162F80E591E00E944B0260E08E8131
S11305800E94A20783E00E946502812F0E946502F7
S113059080E00E946502182F61E08E810E94A2070C
S11305A00E946C02812FDF91CF911F910895EF92E9
S11305B0FF921F93CF93DF931F92CDB7DEB77C01D9
S11305C0162F80E591E049830E944B0260E0F70119
S11305D086810E94A20782E00E946502812F0E9408
S11305E065024981842F0E94650261E0F7018681DA
S11305F00E94A2070F90DF91CF911F91FF90EF907F
S11306000C946C02EF92FF921F93CF93DF9300D070
S1130610CDB7DEB77C01162F80E591E02A834983AC
S11306200E944B0260E0F70186810E94A20785E0E8
S11306300E946502812F0E9465024981842F0E94D5
S113064065022A81822F0E94650261E0F70186819A
S11306500E94A2070F900F90DF91CF911F91FF90FE
S1130660EF900C946C021F93CF93DF93EC0180E521
S113067091E00E944B0260E08E810E94A20780EA12
S11306800E94650280E00E946502182F61E08E815D
S11306900E94A2070E946C02812FDF91CF911F91CB
S11306A008950F931F93CF938C01C62F262F40EEEE
S11306B06FE00E9402036FE0C8010E94B502982F08
S11306C0907E81E09C1301C080E0CF911F910F9137
S11306D008950F931F93CF93DF93413021F042305D
S11306E009F43FC071C0462F50E0FA013197E2315E
S11306F0F10508F069C0EC5CFF4F0C946B0DC7E882
S1130700DFEF6EC0C7E0DAEB67C0C5E8D1EF64C0C5
S1130710C7E0DEEB49E065C0C7E8DFEF35C0C7E8F6
S1130720DAEF32C0C7E8DFEF36C0C7E0DEEB33C034
S1130730C7E0DDEA30C0C7E8DAEF2DC0C6E8D0EF85
S11307402AC0C7E8DAEF2EC0C5E8D1EF41E449C0BA
S1130750C6E8D0EF2EC0C4E0D0EA2BC0C2E8D0ED8A
S113076028C0462F50E0FA013197E231F10560F5D7
S1130770EA5BFF4F0C946B0DC7E0DFEB2DC0C7E0C5
S1130780DFEB02C0C4E0D4EA47E02BC0C7E0DFEBF4
S113079002C0C6E0D4EB43E024C0C7E0DFEB02C0F4
S11307A0C6E0D4EB41E01DC0C5E0D1EBFBCFC6E011
S11307B0D4EB40E016C0C5E0D1EBFBCFC2E0D0E9FA
S11307C0F8CFC0E0D0E8F5CF81E01AC0C7E8DFEF8A
S11307D04FE307C0C7E8DFEF4FE003C0C7E0DFEB3C
S11307E04FE18C016AE20E94D7024D2F69E2C801F1
S11307F00E94D7024C2F68E2C8010E94D70280E011
S1130800DF91CF911F910F9108950F931F93CF9371
S11308108C01C0E340E06C2FC8010E94D70260E164
S11308206C0F40E0C8010E94D70260E26C0F40E008
S1130830C8010E94D702CF5FCE3361F740E060E683
S1130840C8010E94D70240E060E7C801CF911F9120
S11308500F910C94D702EF92FF920F931F93CF93B3
S1130860DF931F92CDB7DEB77C01062F49830E9428
S1130870990260E8C7010E945103182F4981882317
S113088019F068EB71E037C062ED71E08BE593E03D
S113089049830E94F8094981602FC7010E946903B6
S11308A0882319F060EF71E026C062E072E08BE506
S11308B093E00E94F809C7010E94050443E06BE23B
S11308C0C7010E94D70224E044E660E6C7010E9403
S11308D0020320E040E660E7C7010E94020360E0F3
S11308E0C7010E945103182F882319F067E172E0B1
S11308F002C062E372E08BE593E00E94F809812F65
S11309000F90DF91CF911F910F91FF90EF90089579
S1130910F9018130B1F443835283AB016627772711
S1130920942F9C71842F837028E0929F800D112452
S11309308860818365E0569547956A95E1F7408321
S11309400895CA0123E0969587952A95E1F7808357
S11309504295440F407E41831382128208951F936F
S1130960CF93DF93EC01162F80E591E00E944B02B8
S113097060E08E810E94A207812F0E947D020E9466
S1130980650261E08E810E94A207DF91CF911F91E1
S11309900C946C028F929F92AF92BF92CF92DF928F
S11309A0EF92FF920F931F93CF93DF93CDB7DEB7F0
S11309B028970FB6F894DEBF0FBECDBF4C01D62EDC
S11309C0BA01A9018D2D4D835E836F8378870E94C0
S11309D08B02182F4D815E816F817885E11002C0F2
S11309E0F12C02C090E4F92E9E012F5F3F4F802F1F
S11309F00E94880480E591E00E944B0260E0F401CB
S1130A0086810E94A207812F0E9465028E010F5FDA
S1130A101F4F84E0E82EE00EF80181918F010E94BF
S1130A206502E012F9CF8F2D8C290E9465027501B1
S1130A3010E01C1549F0183039F0F70181917F015D
S1130A400E9465021F5FF5CF61E0F40186810E9478
S1130A50A2070E946C026D2DC4010E94AF04289667
S1130A600FB6F894DEBF0FBECDBFDF91CF911F91BB
S1130A700F91FF90EF90DF90CF90BF90AF909F9039
S1130A808F900895EF92FF920F931F93CF938C0151
S1130A907B010E9433038475F7011082843591F140
S1130AA0F801918523E030E0291B310969E073E006
S1130AB0FB019E2F961B492F50E04217530714F554
S1130AC0933010F4C08101C0CFEFC8233196C11117
S1130AD0F0CF933028F4FA01E15FFC4F208101C08C
S1130AE020E52F5FF7012083933028F4FA01E45FB7
S1130AF0FC4F408101C040E020E06CE2C8010E944C
S1130B00020301C0C2E08C2FCF911F910F91FF907F
S1130B10EF900895CF93DF93EC01662359F0862F6D
S1130B206E8361E00E94660761E08E81DF91CF9160
S1130B300C94A207DF91CF910895FC01118624E360
S1130B4033E0308727830C948A05CF93DF9300D05A
S1130B5000D0CDB7DEB74C836B8389839A830E9420
S1130B601E014C816B8189819A810E942B0491E042
S1130B70811101C090E0892F0F900F900F900F907A
S1130B80DF91CF9108952F923F924F925F926F928F
S1130B907F928F929F92AF92BF92CF92DF92EF9209
S1130BA0FF920F931F93CF93DF931F92CDB7DEB7BE
S1130BB04C011A012B01122FFA2CFC0141835283A0
S1130BC06383748320830583612C712CBE016F5F62
S1130BD07F4FC4010E944205FFEF6F1A7F0A8230E3
S1130BE049F482E36816710469F18AE090E00E9496
S1130BF0F706ECCF92E36916710421F15601CE2C6D
S1130C00E02E012FA20191016981C4010E94CA044E
S1130C10FF20B1F000E010E00F5F1F4F69816150C9
S1130C20C4010E94B50283FF08C00233110561F0BC
S1130C308AE090E00E94F706EFCF0233110521F01D
S1130C4080E003C086E001C087E00F90DF91CF9180
S1130C501F910F91FF90EF90DF90CF90BF90AF90D6
S1130C609F908F907F906F905F904F903F902F90C8
S1130C700895AF92CF92DF92EF92FF920F93AC2C34
S1130C806701E02E00E00E94C3050F91FF90EF90F2
S1130C90DF90CF90AF9008951F920F920FB60F92EE
S1130CA011242F933F938F939F93AF93BF9380917E
S1130CB0530390915403A0915503B091560330917E
S1130CC0520323E0230F2D3720F40196A11DB11DFB
S1130CD005C026E8230F0296A11DB11D20935203DF
S1130CE08093530390935403A0935503B0935603F6
S1130CF08091570390915803A0915903B0915A03DE
S1130D000196A11DB11D8093570390935803A0939E
S1130D105903B0935A03BF91AF919F918F913F9123
S1130D202F910F900FBE0F901F9018953FB7F89416
S1130D308091570390915803A0915903B0915A039D
S1130D4026B5A89B05C02F3F19F00196A11DB11D22
S1130D503FBFBA2FA92F982F8827820F911DA11D5D
S1130D60B11DBC01CD0142E0660F771F881F991F9A
S1130D704A95D1F708958F929F92AF92BF92CF92E6
S1130D80DF92EF92FF926B017C010E9496064B0169
S1130D905C01C114D104E104F10401F10E947D0A53
S1130DA00E949606DC01CB0188199909AA09BB099E
S1130DB0883E9340A105B10560F321E0C21AD10831
S1130DC0E108F10888EE880E83E0981EA11CB11C8E
S1130DD0C114D104E104F10419F7DBCFFF90EF90C3
S1130DE0DF90CF90BF90AF909F908F900895823006
S1130DF0910538F0880F991F880F991F059701975F
S1130E00F1F70895789484B5826084BD84B58160D7
S1130E1084BD85B5826085BD85B5816085BDEEE6FE
S1130E20F0E0808181608083E1E8F0E010828081DD
S1130E3082608083808181608083E0E8F0E080814B
S1130E4081608083E1EBF0E0808184608083E0EB6B
S1130E50F0E0808181608083EAE7F0E08081846053
S1130E6080838081826080838081816080838081AF
S1130E70806880831092C1000895833081F028F443
S1130E80813099F08230A1F008958730A9F088303C
S1130E90B9F08430D1F4809180008F7D03C08091BB
S1130EA080008F7780938000089584B58F7702C087
S1130EB084B58F7D84BD08958091B0008F7703C081
S1130EC08091B0008F7D8093B0000895CF93DF931D
S1130ED090E0FC01EC53FF4F2491FC01E852FF4FDA
S1130EE08491882361F190E0880F991FFC01EA50F6
S1130EF0FF4FC591D491FC01E451FF4FA591B491EA
S1130F00611109C09FB7F894888120958223888352
S1130F10EC912E230BC0623061F49FB7F8943881B2
S1130F20822F809583238883EC912E2B2C939FBF53
S1130F3006C08FB7F894E8812E2B28838FBFDF91EA
S1130F40CF9108951F93CF93DF93282F30E0F901B9
S1130F50E055FF4F8491F901EC53FF4FD491F9010F
S1130F60E852FF4FC491CC23C9F0162F81110E947F
S1130F703D07EC2FF0E0EE0FFF1FE451FF4FA5916A
S1130F80B4918FB7F894111105C09C91ED2FE095A1
S1130F90E92302C0EC91ED2BEC938FBFDF91CF914D
S1130FA01F9108958E3008F08E50877020911C0197
S1130FB090E4299F90011124822B80937C008091DE
S1130FC07A00806480937A0080917A0086FDFCCF59
S1130FD0809178002091790090E0922B0895FC0193
S1130FE0918D228D892F90E0805C9F4F821B910907
S1130FF08F7399270895FC01918D828D981731F094
S1131000828DE80FF11D858D90E008958FEF9FEF9D
S11310100895FC01918D828D981761F0828DDF0116
S1131020A80FB11D5D968C91928D9F5F9F73928FD7
S113103090E008958FEF9FEF0895FC01538D448D48
S1131040252F30E0842F90E0821B930B541710F06F
S1131050CF9608950197089581E899E0892B49F086
S113106080E090E0892B29F00E94810981110C9481
S113107000000895FC01848DDF01A80FB11DA35A5F
S1131080BF4F2C91848D90E001968F739927848FA4
S1131090A689B7892C93A089B1898C9180648C939B
S11310A0938D848D981306C00288F389E02D808186
S11310B08F7D80830895CF93DF93EC01888D8823FF
S11310C0C9F0EA89FB89808185FD05C0A889B989B1
S11310D08C9186FD0FC00FB607FCF5CF808185FF8C
S11310E0F2CFA889B9898C9185FFEDCFCE010E94FA
S11310F03A08E7CFDF91CF910895EF92FF920F93D3
S11311001F93CF93DF93EC0181E0888F9B8D8C8DAF
S1131110981305C0E889F989808185FD24C0F62EDD
S11311200B8D10E00F5F1F4F0F731127E02E8C8D76
S1131130E8120CC00FB607FCFACFE889F989808160
S113114085FFF5CFCE010E943A08F1CF8B8DFE01C9
S1131150E80FF11DE35AFF4FF0820B8FEA89FB89F8
S11311608081806207C0EE89FF896083E889F989FC
S113117080818064808381E090E0DF91CF911F9132
S11311800F91FF90EF900895CF92DF92EF92FF922C
S11311901F93CF93DF93EC016A017B01122FE8893F
S11311A0F98982E080834115514E61057105B1F0E2
S11311B060E079E08DE390E0A70196010E94490D7B
S11311C0DA01C9010197A109B109B695A7959795C7
S11311D08795AC01411580E15807A8F0E889F989A1
S11311E0108260E874E88EE190E0A70196010E9405
S11311F0490DBA01A9014150510961097109769556
S1131200679557954795EC85FD855083EE85FF8559
S11312104083188EEC89FD891083EA89FB898081DB
S113122080618083EA89FB89808188608083EA8980
S1131230FB89808180688083EA89FB8980818F7D36
S11312408083DF91CF911F91FF90EF90DF90CF903B
S113125008951F920F920FB60F9211242F938F931C
S11312609F93EF93FF93E0916B03F0916C03808164
S1131270E0917103F091720382FD12C0908180911C
S113128074038F5F8F7320917503821751F0E0917F
S11312907403F0E0E55AFC4F958F8093740301C00A
S11312A08081FF91EF919F918F912F910F900FBEAD
S11312B00F901F9018951F920F920FB60F92112442
S11312C02F933F934F935F936F937F938F939F934A
S11312D0AF93BF93EF93FF938BE593E00E943A089B
S11312E0FF91EF91BF91AF919F918F917F916F91FA
S11312F05F914F913F912F910F900FBE0F901F90D0
S113130018958BE593E00E94EF0721E0892B09F4FF
S113131020E0822F0895EBE5F3E01382128288EE39
S113132093E0A0E0B0E084839583A683B78386E14D
S113133093E09183808385EC90E09587848784ECA7
S113134090E09787868780EC90E0918B808B81EC8E
S113135090E0938B828B82EC90E0958B848B86EC6F
S113136090E0978B868B118E128E138E148E0895B7
S1131370CF92DF92EF92FF920F931F93CF93DF935D
S11313806C017A018B01C0E0D0E0CE15DF0589F055
S1131390D8016D918D01D601ED91FC910190F08100
S11313A0E02DC6010995892B11F47E0102C0219616
S11313B0ECCFC701DF91CF911F910F91FF90EF9078
S11313C0DF90CF9008956115710579F0FB010190CC
S11313D00020E9F73197AF01461B570BDC01ED9173
S11313E0FC910280F381E02D099480E090E008955F
S11313F00C94E3096DEE71E00C94E3090F931F93D1
S1131400CF93DF93EC010E94E3098C01CE010E948B
S1131410FA09800F911FDF91CF911F910F910895C9
S11314204F925F926F927F92EF92FF920F931F936E
S1131430CF93DF93CDB7DEB7A1970FB6F894DEBF95
S11314400FBECDBF7C01FA01CB0119A2223008F4F2
S11314502AE08E010F5D1F4F422E512C612C712CFE
S1131460BF01A30192010E94490DF901CA01015073
S113147011096A3014F4605D01C0695CD8016C9391
S1131480232B242B252B61F7B801C7010E94E30904
S1131490A1960FB6F894DEBF0FBECDBFDF91CF91FA
S11314A01F910F91FF90EF907F906F905F904F90FE
S11314B008952115310541F4DC01ED91FC91019071
S11314C0F081E02D642F09940C94100A0F931F935C
S11314D0CF93DF93EC019A01462F50E060E070E077
S11314E00E94590A8C01CE010E94FA09800F911FB3
S11314F0DF91CF911F910F91089508950F931F933A
S1131500CF93DF9300D0CDB7DEB700918E01109159
S11315108F019FB7F894F80120853185232BE9F4D6
S1131520282F8CE19CE09A83898380919201909189
S11315309301228722E030E031872087FC01628119
S11315407381AB010E94F400F801808591850297B4
S113155009F4789480E090E003C09FBF81E090E0BC
S11315600F900F90DF91CF911F910F910895CF931A
S113157090E020918A0130918B0182179307D8F46F
S1131580E0918601F0918701880F991FE80FF91FF8
S113159040815181FA0187819085029760F4CFB729
S11315A0F89421E030E06EE871E084E891E00E9474
S11315B0390BCFBF02C083E090E0CF910895E09152
S11315C08E01F0918F010190F081E02D8FB7F89496
S11315D06EEE7AE0828193810E941401CF93DF93AF
S11315E000D0CDB7DEB7AE014F5F5F4F6EE871E05C
S11315F084E891E00E94A00BBC0189819A810E9439
S11316003A0C0F900F90DF91CF9108950895EC015B
S1131610EC81FD8181818F3F09F07894E985FA8519
S113162009958FB7F8946EEE7AE08A819B810E94C7
S113163014010F931F93CF93DF93C0919001D09126
S1131640910100918E0110918F01F801808591859F
S1131650029729F42097F1F3FE010995F6CF8091C2
S1131660920190919301DF91CF911F910F910C946E
S1131670510CEF92FF920F931F93CF93DF93DA01F4
S11316801496ED90FC901597E70198811D968C9126
S1131690981708F04CC0FB010190F081E02D008107
S11316A01181D80114966D917C9115979F5F988351
S11316B0A481B581232B11F1EB019981E701898183
S11316C09817E0F48D919C9111979583848382E01F
S11316D090E0EB019B838A8313965C934E9312975D
S11316E08681978111969C938E93B783A6835183A9
S11316F04083BA01C8010E941E0C16C0E7018A810A
S11317009B81892B21F481E090E09B838A838D91D6
S11317109C9111979583848311961C921E92BD010E
S1131720CF0102960E94180D80E090E002C084E090
S113173090E0DF91CF911F910F91FF90EF9008956A
S1131740AF92BF92CF92DF92EF92FF920F931F93CB
S1131750CF93DF935B01DB01CD91DC91FE0101911D
S113176011917F01D8011496CD90DC901597FA0160
S113177011830083D60112968D919C91139704973F
S113178059F5B701C5010E941F0DAC0188819981EB
S113179008171907A9F0D8011496ED91FC91159733
S11317A01B962C912183208121502083211103C079
S11317B01382128209C021E030E03383228304C003
S11317C0F6012081215020832C813D81DA012D9363
S11317D03C935D834C8323C06E817F81FB018081B8
S11317E091819F838E83D8011B968C91F60181830E
S11317F081E090E093838283A801C7010E94180DC1
S1131800B701C5010E946C0C892B39F4EE81FF816C
S1131810828193819983888302C088819981DF9131
S1131820CF911F910F91FF90EF90DF90CF90BF90D9
S1131830AF900895F894FFCFE4E30895FB01A481E9
S1131840B58112962D913C91139744E050E0139684
S11318505C934E931297DC0112964D915C91139711
S113186062817381CF012230310511F40C94AC00F4
S11318700C94F400CB01DB011496ED91FC911597C7
S11318802281338144E050E05383428312966D9168
S11318907C9113972230310511F40C94CC000C94F4
S11318A0EC00DC0112966D917C911397ED91FC9103
S11318B040815181DB01ED91FC912289338921150D
S11318C0310529F4DB01ED93FC930C94CC0024172F
S11318D03507C1F3F901F1CF0F931F93CF93DF9332
S11318E0EC01A881B981EB01E881F9811696CD91CB
S11318F0DC9117972097B1F08A819B813097E1F1B1
S1131900EC010C811D8122813381E9014C815D81CF
S1131910E8013981EA012981321770F522E030E0CB
S1131920E8010BC0309741F1EC018C819D81EC0101
S11319304C815D8122E030E0EA013B832A832081EF
S11319403181EB0139832883C281D3814C815D814C
S113195016962D913C911797318320831796FC930B
S1131960EE931697CD93DC932C85FA0131813217CF
S113197028F4FA01218302C080E090E0DF91CF9146
S11319801F910F910895CF92DF92EF92FF920F93E0
S11319901F93CF93DF93EB01AA81BB811496ED9142
S11319A0FC9115974115510541F022813381223074
S11319B0310518F01B962C9101C02181DC01ED91B9
S11319C0FC91A0E0B0E03097D9F002811381E801E6
S11319D0CC80DD804115510551F0E601EA80FB80A1
S11319E0D2E0ED16F10418F0E8013B8502C0E601EF
S11319F03981321728F0DF010190F081E02DE3CF27
S1131A00109729F06D937C9380E090E005C0DC0191
S1131A106D937C9381E090E0EB01F983E883DF919F
S1131A20CF911F910F91FF90EF90DF90CF90089589
S1131A30FB015383428341E050E00C94C30CEF92CA
S1131A40FF920F931F93CF93DF938C01FC01C0810E
S1131A50D181EE80FF80F701808191819F838E8305
S1131A60C8010E946C0CEE81FF81892B51F43097E0
S1131A7019F08281938103C0F8018481958199834F
S1131A808883C701DF91CF911F910F91FF90EF9051
S1131A900895A1E21A2EAA1BBB1BFD010DC0AA1FAB
S1131AA0BB1FEE1FFF1FA217B307E407F50720F0C3
S1131AB0A21BB30BE40BF50B661F771F881F991F3E
S1131AC01A9469F760957095809590959B01AC0187
S1131AD0BD01CF010895EE0FFF1F0590F491E02D95
S1091AE00994F894FFCF05
S1131AE60D00A60100004C0300000000FF000000EA
S1131AF60000000000010000010004000143414E03
S1131B062042555320536869656C6420696E697474
S1131B16206661696C0020496E69742043414E2039
S1131B2642555320536869656C6420616761696E28
S1131B360043414E2042555320536869656C642026
S1131B46696E6974206F6B210041726475696E6FEA
S1131B56205761746572204C6576656C2053656EFA
S1131B66736F7200F80394014C0302000100020132
S1131B76AA01A6019801A601B401500314010000AC
S1131B8600C201010101B401500318010103001947
S1131B960B0000010000FFFF456E7465722073653B
S1131BA67474696E67206D6F6465206661696C0D77
S1131BB60A00456E7465722073657474696E6720D5
S1131BC66D6F64652073756363657373200D0A0016
S1131BD673657420726174652066616C6C21210DD5
S1131BE60A00736574207261746520737563636596
S1131BF6737321210D0A00456E746572204E6F724F
S1131C066D616C204D6F6465204661696C21210D00
S1131C160A00456E746572204E6F726D616C204DBC
S1131C266F6465205375636365737321210D0A0020
S1131C36426567696E20746F20736574204D617305
S1131C466B21210D0A00456E7465722073657474E8
S1131C56696E67206D6F64652066616C6C0D0A00A1
S1131C66456E746572206E6F726D616C206D6F6463
S1131C76652066616C6C0D0A00736574204D617392
S1131C866B207375636365737321210D0A004265C6
S1131C9667696E20746F207365742046696C746579
S1131CA67221210D0A00456E746572206E6F726D85
S1131CB6616C206D6F64652066616C6C0D0A5365FA
S1131CC6742066696C746572206661696C21210DE5
S1131CD60A007365742046696C74657220737563B3
S1131CE66365737321210D0A000410400408103043
S1131CF64050000000007D08B8091D085B08EF0786
S1131D060908FB076E616E00696E66006F766600F1
S9030000FC
