S00F000061726475696E6F2E7372656323
S11300000C9487000C94AF000C94AF000C94AF00D8
S11300100C94AF000C94AF000C94AF000C94AF00A0
S11300200C94AF000C94AF000C94AF000C94AF0090
S11300300C94AF000C94AF000C94AF000C94AF0080
S11300400C94C7060C94AF000C94B9090C94EB09FA
S11300500C94AF000C94AF000C94AF000C94AF0060
S11300600C94AF000C94AF006104FA036504FD0323
S11300700004030407040A040D0410041304160402
S113008019041C041F0423042604290469043704E6
S11300903A045F043D045F044104440448045F04DB
S11300A05F044B044F045204560459045F045C0477
S11300B00000000800020100000304070000000023
S11300C0000000000102040810204080010204081E
S11300D0102001020408102004040404040404048D
S11300E002020202020203030303030300000000EE
S11300F023002600290000000000250028002B0012
S113010000000000240027002A000E021B0A11240C
S11301101FBECFEFD8E0DEBFCDBF13E0A0E0B1E05B
S1130120EEE8FDE102C005900D92A431B107D9F7C4
S113013023E0A4E1B3E001C01D92A33EB207E1F7BE
S113014010E0C7E8D0E004C02197FE010E94BF0E72
S1130150C538D107C9F70E9404020C94C50E0C944B
S11301603D0CCF92DF92EF92FF920F931F93E82FF3
S1130170F92F05C0015011092109310961F190815C
S113018096239417B9F305C00150110921093109C7
S113019011F1908196239413F7CFC12CD12CE12C2B
S11301A0F12C0AC08FEFC81AD80AE80AF80A0C150D
S11301B01D052E053F0579F080818623841791F370
S11301C06C2D7D2D8E2D9F2D1F910F91FF90EF9003
S11301D0DF90CF90089560E070E080E090E01F91A0
S11301E00F91FF90EF90DF90CF9008952F923F9260
S11301F04F925F926F927F928F929F92AF92BF9233
S1130200CF92DF92EF92FF920F931F93CF93DF93DE
S1130210E42FF52F419050804F925F92E42FF52FF9
S11302204DB65EB6419250820C941601E62FF72F1C
S1130230419050804DBE5EBE5F904F90E62FF72FE9
S113024041925082DF91CF911F910F91FF90EF90D7
S1130250DF90CF90BF90AF909F908F907F906F90E2
S11302605F904F903F902F900C94290BE62FF72F1F
S1130270419150814DBF5EBF0C942A0B2F923F9247
S11302804F925F926F927F928F929F92AF92BF92A2
S1130290CF92DF92EF92FF920F931F93CF93DF934E
S11302A0E42FF52F419050804F925F92E42FF52F69
S11302B04DB65EB6419250820C943601E82FF92F68
S11302C0419150814DBF5EBFE62FF72F0994000086
S11302D0CF93CFB7F89480911703811127C0E2EE32
S11302E0F0E08491EEECF0E09491E82FF0E0EE0F72
S11302F0FF1FE050FF4FA591B491EC91E92321F445
S113030061E08AE00E941D0861E08AE00E94E10742
S11303108CB580618CBD8CB580648CBD61E08DE052
S11303200E94E10761E08BE00E94E10780911703DE
S11303308F5F80931703CFBFCF91089580E00E9411
S1130340DA0A8091270381111EC0809125039091C0
S11303502603892B39F48DB79EB790932603809397
S11303602503089520912503309126038DB79EB768
S11303702817390741F081E08093270361E08091D9
S113038000010C941D08089561E0809100010E9411
S1130390E10726E040E052EC61E070E085E493E0A0
S11303A00E94540941E060E189E193E00E94200643
S11303B0882399F06CE171E085E493E00E948E0A51
S11303C065E371E085E493E00E948E0A64E670E0E0
S11303D080E090E00E943607E5CF60E571E085E4B7
S11303E093E00E948E0A61E085E00E94E10760E0EC
S11303F086E00C94E1070E949E018CEB98E0892B27
S113040011F00C94BC0808950E947D070E94C40159
S113041080E00E94A10A80E090E008956AE089E10A
S113042093E00C941806CF92EF92FF920F93CF9320
S1130430DF9360E085E00E941D0882E090E00E9466
S1130440720761E085E00E941D088AE090E00E9446
S1130450720760E085E00E941D0820E432E44FE06A
S113046050E061E086E00E944D086093320370938F
S1130470330380933403909335030E94A40D26E93B
S113048033E44BE05DE30E94300E20E030E040E0D6
S11304905FE30E94300E0E946C0D709331036093F1
S11304A030039B01330F220B322F209328039B012F
S11304B0330F220B322F209329039B01330F220B7E
S11304C0322F20932A039B01330F220B322F2093C8
S11304D02B03330F220B322F20932C03330F220BC9
S11304E0322F20932D0370932E0360932F0348E043
S11304F050E068E273E085E493E00E94480A41E03A
S113050050E062ED71E085E493E00E94480A64E6FD
S113051070E080E090E00E94360785E493E00E945A
S113052099088936910561F4C8E2D3E085E493E043
S11305300E949908899383E0C033D807B9F7EDCFB7
S1130540CC24C39488E2E82E83E0F82E08E020E06F
S113055040E050E0BA0189E193E00E94B40668EEFD
S113056073E080E090E00E9436078091230390912D
S1130570240301969093240380932303DF91CF9166
S11305800F91FF90EF90CF900C94020B20911603E3
S1130590222399F04FB7F89420911603213059F48F
S11305A02DB3209314033DB32091150320952323E9
S11305B02DBB4FBF02C0409314038CBD9DBD089555
S11305C08EBD00000DB407FEFDCF8EB50895809159
S11305D01603882361F09FB7F89420911603809145
S11305E01403213019F48DBB9FBF08958FBF089564
S11305F0813431F0813531F0813331F080E0089578
S113060082E8089584E8089581E80895813431F0FA
S1130610813531F0813331F080E0089582E408952A
S113062084E4089580E40895CF93DF93EC0180E59A
S113063091E00E94C60260E08E810E941D0880EC59
S11306400E94E00261E08E810E941D080E94E70280
S11306506AE070E080E090E0DF91CF910C9436077F
S11306601F93CF93DF93EC01162F80E591E00E9456
S1130670C60260E08E810E941D0883E00E94E002B1
S1130680812F0E94E00280E00E94E002182F61E0C6
S11306908E810E941D080E94E702812FDF91CF9175
S11306A01F910895EF92FF921F93CF93DF931F92B0
S11306B0CDB7DEB77C01162F80E591E049830E9417
S11306C0C60260E0F70186810E941D0882E00E9454
S11306D0E002812F0E94E0024981842F0E94E002FF
S11306E061E0F70186810E941D080F90DF91CF9190
S11306F01F91FF90EF900C94E702EF92FF921F93EB
S1130700CF93DF9300D0CDB7DEB77C01162F80E501
S113071091E02A8349830E94C60260E0F701868142
S11307200E941D0885E00E94E002812F0E94E002E1
S11307304981842F0E94E0022A81822F0E94E002D4
S113074061E0F70186810E941D080F900F90DF91F0
S1130750CF911F91FF90EF900C94E7021F93CF93DA
S1130760DF93EC0180E591E00E94C60260E08E8197
S11307700E941D0880EA0E94E00280E00E94E002DC
S1130780182F61E08E810E941D080E94E702812FCC
S1130790DF91CF911F9108950F931F93CF938C01F5
S11307A0C62F262F40EE6FE00E947D036FE0C80144
S11307B00E943003982F907E81E09C1301C080E05A
S11307C0CF911F910F9108950F931F93CF93DF93B0
S11307D0413021F0423009F43FC071C0462F50E04F
S11307E0FA013197E231F10508F069C0EC5CFF4F82
S11307F00C94BF0EC7E8DFEF6EC0C7E0DAEB67C04A
S1130800C5E8D1EF64C0C7E0DEEB49E065C0C7E8E6
S1130810DFEF35C0C7E8DAEF32C0C7E8DFEF36C034
S1130820C7E0DEEB33C0C7E0DDEA30C0C7E8DAEF8B
S11308302DC0C6E8D0EF2AC0C7E8DAEF2EC0C5E85D
S1130840D1EF41E449C0C6E8D0EF2EC0C4E0D0EAFD
S11308502BC0C2E8D0ED28C0462F50E0FA013197F2
S1130860E231F10560F5EA5BFF4F0C94BF0EC7E07F
S1130870DFEB2DC0C7E0DFEB02C0C4E0D4EA47E001
S11308802BC0C7E0DFEB02C0C6E0D4EB43E024C0DA
S1130890C7E0DFEB02C0C6E0D4EB41E01DC0C5E019
S11308A0D1EBFBCFC6E0D4EB40E016C0C5E0D1EB02
S11308B0FBCFC2E0D0E9F8CFC0E0D0E8F5CF81E0CB
S11308C01AC0C7E8DFEF4FE307C0C7E8DFEF4FE028
S11308D003C0C7E0DFEB4FE18C016AE20E945203E0
S11308E04D2F69E2C8010E9452034C2F68E2C801EF
S11308F00E94520380E0DF91CF911F910F910895E0
S11309000F931F93CF938C01C0E340E06C2FC80179
S11309100E94520360E16C0F40E0C8010E94520340
S113092060E26C0F40E0C8010E945203CF5FCE33F7
S113093061F740E060E6C8010E94520340E060E7CE
S1130940C801CF911F910F910C945203EF92FF9223
S11309500F931F93CF93DF931F92CDB7DEB77C0124
S1130960062F49830E94140360E8C7010E94CC0348
S1130970182F4981882319F06CE971E037C066EBC0
S113098071E085E493E049830E94880A4981602FDD
S1130990C7010E94E403882319F064ED71E026C0C6
S11309A066EE71E085E493E00E94880AC7010E9424
S11309B0800443E06BE2C7010E94520324E044E652
S11309C060E6C7010E947D0320E040E660E7C701BE
S11309D00E947D0360E0C7010E94CC03182F882386
S11309E019F06BEF71E002C066E172E085E493E018
S11309F00E94880A812F0F90DF91CF911F910F9150
S1130A00FF90EF900895F9018130B1F4438352834C
S1130A10AB0166277727942F9C71842F837028E07D
S1130A20929F800D11248860818365E056954795D7
S1130A306A95E1F740830895CA0123E09695879566
S1130A402A95E1F780834295440F407E41831382C7
S1130A50128208951F93CF93DF93EC01162F80E544
S1130A6091E00E94C60260E08E810E941D08812FE1
S1130A700E94F8020E94E00261E08E810E941D083B
S1130A80DF91CF911F910C94E7028F929F92AF92C6
S1130A90BF92CF92DF92EF92FF920F931F93CF9367
S1130AA0DF93CDB7DEB728970FB6F894DEBF0FBE3D
S1130AB0CDBF4C01D62EBA01A9018D2D4D835E8385
S1130AC06F8378870E940603182F4D815E816F81A2
S1130AD07885E11002C0F12C02C090E4F92E9E0149
S1130AE02F5F3F4F802F0E94030580E591E00E9415
S1130AF0C60260E0F40186810E941D08812F0E94D5
S1130B00E0028E010F5F1F4F84E0E82EE00EF80133
S1130B1081918F010E94E002E012F9CF8F2D8C2980
S1130B200E94E002750110E01C1549F0183039F0FC
S1130B30F70181917F010E94E0021F5FF5CF61E020
S1130B40F40186810E941D080E94E7026D2DC401F4
S1130B500E942A0528960FB6F894DEBF0FBECDBFBB
S1130B60DF91CF911F910F91FF90EF90DF90CF9085
S1130B70BF90AF909F908F900895EF92FF920F9344
S1130B801F93CF938C017B010E94AE038475F70100
S1130B901082843591F1F801918523E030E0291B1E
S1130BA031096DEE72E0FB019E2F961B492F50E038
S1130BB04217530714F5933010F4C08101C0CFEFEE
S1130BC0C8233196C111F0CF933028F4FA01ED50C7
S1130BD0FD4F208101C020E52F5FF7012083933072
S1130BE028F4FA01E051FD4F408101C040E020E0CB
S1130BF06CE2C8010E947D0301C0C2E08C2FCF913A
S1130C001F910F91FF90EF900895CF93DF93EC0124
S1130C10662359F0862F6E8361E00E94E10761E04C
S1130C208E81DF91CF910C941D08DF91CF910895AF
S1130C30FC01118628E133E0308727830C940506F4
S1130C40CF93DF9300D000D0CDB7DEB74C836B8356
S1130C5089839A830E9468014C816B8189819A817E
S1130C600E94A60491E0811101C090E0892F0F90A9
S1130C700F900F900F90DF91CF9108952F923F9294
S1130C804F925F926F927F928F929F92AF92BF9298
S1130C90CF92DF92EF92FF920F931F93CF93DF9344
S1130CA01F92CDB7DEB74C011A012B01122FFA2C7B
S1130CB0FC01418352836383748320830583612C05
S1130CC0712CBE016F5F7F4FC4010E94BD05FFEF11
S1130CD06F1A7F0A823049F482E36816710469F15D
S1130CE08AE090E00E947207ECCF92E369167104E7
S1130CF021F15601CE2CE02E012FA2019101698130
S1130D00C4010E944505FF20B1F000E010E00F5F30
S1130D101F4F69816150C4010E94300383FF08C0E2
S1130D200233110561F08AE090E00E947207EFCF70
S1130D300233110521F080E003C086E001C087E0A2
S1130D400F90DF91CF911F910F91FF90EF90DF9063
S1130D50CF90BF90AF909F908F907F906F905F9057
S1130D604F903F902F900895AF92CF92DF92EF92E1
S1130D70FF920F93AC2C6701E02E00E00E943E0628
S1130D800F91FF90EF90DF90CF90AF9008951F9256
S1130D900F920FB60F9211242F933F938F939F932B
S1130DA0AF93BF9380913D0390913E03A0913F0385
S1130DB0B091400330913C0323E0230F2D3720F4FE
S1130DC00196A11DB11D05C026E8230F0296A11DA1
S1130DD0B11D20933C0380933D0390933E03A09365
S1130DE03F03B09340038091410390914203A0914B
S1130DF04303B09144030196A11DB11D80934103A7
S1130E0090934203A0934303B0934403BF91AF91E3
S1130E109F918F913F912F910F900FBE0F901F9034
S1130E2018953FB7F8948091410390914203A091A3
S1130E304303B091440326B5A89B05C02F3F19F086
S1130E400196A11DB11D3FBFBA2FA92F982F882746
S1130E50820F911DA11DB11DBC01CD0142E0660FA1
S1130E60771F881F991F4A95D1F708958F929F92F3
S1130E70AF92BF92CF92DF92EF92FF926B017C010F
S1130E800E9411074B015C01C114D104E104F10477
S1130E9001F10E94A00A0E941107DC01CB0188190C
S1130EA09909AA09BB09883E9340A105B10560F3DD
S1130EB021E0C21AD108E108F10888EE880E83E027
S1130EC0981EA11CB11CC114D104E104F10419F74A
S1130ED0DBCFFF90EF90DF90CF90BF90AF909F90CB
S1130EE08F9008958230910538F0880F991F880FEC
S1130EF0991F05970197F1F70895789484B5826056
S1130F0084BD84B5816084BD85B5826085BD85B5A9
S1130F10816085BDEEE6F0E0808181608083E1E858
S1130F20F0E0108280818260808380818160808390
S1130F30E0E8F0E0808181608083E1EBF0E0808193
S1130F4084608083E0EBF0E0808181608083EAE765
S1130F50F0E08081846080838081826080838081EE
S1130F60816080838081806880831092C1000895AD
S1130F70833081F028F4813099F08230A1F0089513
S1130F808730A9F08830B9F08430D1F480918000A2
S1130F908F7D03C0809180008F77809380000895B7
S1130FA084B58F7702C084B58F7D84BD0895809108
S1130FB0B0008F7703C08091B0008F7D8093B00024
S1130FC00895CF93DF9390E0FC01EC53FF4F2491FD
S1130FD0FC01E852FF4F8491882361F190E0880F6F
S1130FE0991FFC01E050FF4FC591D491FC01EA50D8
S1130FF0FF4FA591B491611109C09FB7F8948881FE
S1131000209582238883EC912E230BC0623061F4F7
S11310109FB7F8943881822F809583238883EC913D
S11310202E2B2C939FBF06C08FB7F894E8812E2BEC
S113103028838FBFDF91CF9108951F93CF93DF93C0
S1131040282F30E0F901E055FF4F8491F901EC536A
S1131050FF4FD491F901E852FF4FC491CC23C9F05A
S1131060162F81110E94B807EC2FF0E0EE0FFF1F3E
S1131070EA50FF4FA591B4918FB7F894111105C0B0
S11310809C91ED2FE095E92302C0EC91ED2BEC93BC
S11310908FBFDF91CF911F9108950F931F9390E01D
S11310A0FC01EC53FF4F7491FC01E852FF4FE491B3
S11310B0662311F0672F01C060E0F0E0EE0FFF1F20
S11310C0E451FF4F8591949189019A013F70462F15
S11310D0672F0E94B100611571058105910549F0E2
S11310E0DC01CB010196A11DB11DBC01CD019F7096
S11310F003C060E070E0CB011F910F910895FC01E3
S1131100918D228D892F90E0805C9F4F821B9109E5
S11311108F7399270895FC01918D828D981731F072
S1131120828DE80FF11D858D90E008958FEF9FEF7C
S11311300895FC01918D828D981761F0828DDF01F5
S1131140A80FB11D5D968C91928D9F5F9F73928FB6
S113115090E008958FEF9FEF0895FC01538D448D27
S1131160252F30E0842F90E0821B930B541710F04E
S1131170CF9608950197089581E19AE0892B49F06B
S113118080E090E0892B29F00E94110A81110C94CF
S113119000000895FC01848DDF01A80FB11DA35A3E
S11311A0BF4F2C91848D90E001968F739927848F83
S11311B0A689B7892C93A089B1898C9180648C937A
S11311C0938D848D981306C00288F389E02D808165
S11311D08F7D80830895CF93DF93EC01888D8823DE
S11311E0C9F0EA89FB89808185FD05C0A889B98990
S11311F08C9186FD0FC00FB607FCF5CF808185FF6B
S1131200F2CFA889B9898C9185FFEDCFCE010E94D8
S1131210CA08E7CFDF91CF910895EF92FF920F9321
S11312201F93CF93DF93EC0181E0888F9B8D8C8D8E
S1131230981305C0E889F989808185FD24C0F62EBC
S11312400B8D10E00F5F1F4F0F731127E02E8C8D55
S1131250E8120CC00FB607FCFACFE889F98980813F
S113126085FFF5CFCE010E94CA08F1CF8B8DFE0118
S1131270E80FF11DE35AFF4FF0820B8FEA89FB89D7
S11312808081806207C0EE89FF896083E889F989DB
S113129080818064808381E090E0DF91CF911F9111
S11312A00F91FF90EF900895CF92DF92EF92FF920B
S11312B01F93CF93DF93EC016A017B01122FE8891E
S11312C0F98982E080834115514E61057105B1F0C1
S11312D060E079E08DE390E0A70196010E949D0E05
S11312E0DA01C9010197A109B109B695A7959795A6
S11312F08795AC01411580E15807A8F0E889F98980
S1131300108260E874E88EE190E0A70196010E94E3
S11313109D0EBA01A90141505109610971097695DF
S1131320679557954795EC85FD855083EE85FF8538
S11313304083188EEC89FD891083EA89FB898081BA
S113134080618083EA89FB89808188608083EA895F
S1131350FB89808180688083EA89FB8980818F7D15
S11313608083DF91CF911F91FF90EF90DF90CF901A
S113137008951F920F920FB60F9211242F938F93FB
S11313809F93EF93FF93E0915503F091560380816F
S1131390E0915B03F0915C0382FD12C09081809127
S11313A05E038F5F8F7320915F03821751F0E0918A
S11313B05E03F0E0EB5BFC4F958F80935E0301C00E
S11313C08081FF91EF919F918F912F910F900FBE8C
S11313D00F901F9018951F920F920FB60F92112421
S11313E02F933F934F935F936F937F938F939F9329
S11313F0AF93BF93EF93FF9385E493E00E94CA08F1
S1131400FF91EF91BF91AF919F918F917F916F91D8
S11314105F914F913F912F910F900FBE0F901F90AE
S1131420189585E493E00E947F0821E0892B09F454
S113143020E0822F0895E5E4F3E01382128288EE1F
S113144093E0A0E0B0E084839583A683B7838AEF1A
S113145092E09183808385EC90E09587848784EC87
S113146090E09787868780EC90E0918B808B81EC6D
S113147090E0938B828B82EC90E0958B848B86EC4E
S113148090E0978B868B118E128E138E148E089596
S1131490CF92DF92EF92FF920F931F93CF93DF933C
S11314A06C017A018B01C0E0D0E0CE15DF0589F034
S11314B0D8016D918D01D601ED91FC910190F081DF
S11314C0E02DC6010995892B11F47E0102C02196F5
S11314D0ECCFC701DF91CF911F910F91FF90EF9057
S11314E0DF90CF9008956115710579F0FB010190AB
S11314F00020E9F73197AF01461B570BDC01ED9152
S1131500FC910280F381E02D099480E090E008953D
S11315100C94730A61ED71E00C94730A0F931F939A
S1131520CF93DF93EC010E94730A8C01CE010E94D9
S11315308A0A800F911FDF91CF911F910F91089517
S113154008950F931F93CF93DF9300D0CDB7DEB7E9
S113155000917201109173019FB7F894F8012085EE
S11315603185232BE9F4282F8FE39CE09A83898328
S11315708091760190917701228722E030E03187D3
S11315802087FC0162817381AB010E943E01F80156
S113159080859185029709F4789480E090E003C0F7
S11315A09FBF81E090E00F900F90DF91CF911F914A
S11315B00F910895CF9390E020916E0130916F01C7
S11315C082179307D8F4E0916A01F0916B01880FB8
S11315D0991FE80FF91F40815181FA018781908595
S11315E0029760F4CFB7F89421E030E062E771E04D
S11315F088E691E00E945C0BCFBF02C083E090E0DC
S1131600CF910895E0917201F09173010190F081FE
S1131610E02D8FB7F89461E17BE0828193810E9491
S11316205E01CF93DF9300D0CDB7DEB7AE014F5F3D
S11316305F4F62E771E088E691E00E94C30BBC0152
S113164089819A810E945D0C0F900F90DF91CF9158
S113165008950895EC01EC81FD8181818F3F09F0AB
S11316607894E985FA8509958FB7F89461E17BE070
S11316708A819B810E945E010F931F93CF93DF9316
S1131680C0917401D09175010091720110917301A0
S1131690F80180859185029729F42097F1F3FE01E2
S11316A00995F6CF8091760190917701DF91CF91E2
S11316B01F910F910C94740CEF92FF920F931F9350
S11316C0CF93DF93DA011496ED90FC901597E70120
S11316D098811D968C91981708F04CC0FB010190DD
S11316E0F081E02D00811181D80114966D917C91D7
S11316F015979F5F9883A481B581232B11F1EB018A
S11317009981E70189819817E0F48D919C91119753
S11317109583848382E090E0EB019B838A83139614
S11317205C934E9312978681978111969C938E9326
S1131730B783A68351834083BA01C8010E94410C38
S113174016C0E7018A819B81892B21F481E090E016
S11317509B838A838D919C911197958384831196A1
S11317601C921E92BD01CF0102960E943B0D80E0A7
S113177090E002C084E090E0DF91CF911F910F913F
S1131780FF90EF900895AF92BF92CF92DF92EF92C5
S1131790FF920F931F93CF93DF935B01DB01CD91F6
S11317A0DC91FE01019111917F01D8011496CD9035
S11317B0DC901597FA0111830083D60112968D915E
S11317C09C911397049759F5B701C5010E94420DE6
S11317D0AC018881998108171907A9F0D8011496DA
S11317E0ED91FC9115971B962C912183208121501A
S11317F02083211103C01382128209C021E030E04A
S11318003383228304C0F6012081215020832C815C
S11318103D81DA012D933C935D834C8323C06E811B
S11318207F81FB01808191819F838E83D8011B96E8
S11318308C91F601818381E090E093838283A801F7
S1131840C7010E943B0DB701C5010E948F0C892B73
S113185039F4EE81FF81828193819983888302C068
S113186088819981DF91CF911F910F91FF90EF9023
S1131870DF90CF90BF90AF900895F894FFCFEAE740
S11318800895FB01A481B58112962D913C91139783
S113189044E050E013965C934E931297DC01129649
S11318A04D915C91139762817381CF012230310590
S11318B011F40C94F6000C943E01CB01DB01149658
S11318C0ED91FC9115972281338144E050E05383DC
S11318D0428312966D917C9113972230310511F455
S11318E00C9416010C943601DC0112966D917C91D6
S11318F01397ED91FC9140815181DB01ED91FC91B5
S1131900228933892115310529F4DB01ED93FC93F8
S11319100C94160124173507C1F3F901F1CF0F9385
S11319201F93CF93DF93EC01A881B981EB01E88188
S1131930F9811696CD91DC9117972097B1F08A81A1
S11319409B813097E1F1EC010C811D81228133816F
S1131950E9014C815D81E8013981EA01298132176D
S113196070F522E030E0E8010BC0309741F1EC0162
S11319708C819D81EC014C815D8122E030E0EA01A3
S11319803B832A8320813181EB0139832883C281FF
S1131990D3814C815D8116962D913C9117973183AB
S11319A020831796FC93EE931697CD93DC932C85A6
S11319B0FA013181321728F4FA01218302C080E050
S11319C090E0DF91CF911F910F910895CF92DF9214
S11319D0EF92FF920F931F93CF93DF93EB01AA81B2
S11319E0BB811496ED91FC9115974115510541F079
S11319F0228133812230310518F01B962C9101C0CD
S1131A002181DC01ED91FC91A0E0B0E03097D9F0A8
S1131A1002811381E801CC80DD804115510551F02C
S1131A20E601EA80FB80D2E0ED16F10418F0E8014B
S1131A303B8502C0E6013981321728F0DF010190AD
S1131A40F081E02DE3CF109729F06D937C9380E033
S1131A5090E005C0DC016D937C9381E090E0EB01A4
S1131A60F983E883DF91CF911F910F91FF90EF905D
S1131A70DF90CF900895FB015383428341E050E00F
S1131A800C94E60CEF92FF920F931F93CF93DF9386
S1131A908C01FC01C081D181EE80FF80F70180813F
S1131AA091819F838E83C8010E948F0CEE81FF81F8
S1131AB0892B51F4309719F08281938103C0F80186
S1131AC08481958199838883C701DF91CF911F9188
S1131AD00F91FF90EF9008950E94730D6894B111D7
S1131AE00C942A0E08950E940F0E88F09F5798F0C8
S1131AF0B92F9927B751B0F0E1F0660F771F881F0F
S1131B00991F1AF0BA95C9F714C0B13091F00E9428
S1131B10290EB1E008950C94290E672F782F882799
S1131B20B85F39F0B93FCCF3869577956795B3954F
S1131B30D9F73EF490958095709561957F4F8F4FBE
S1131B409F4F0895E89409C097FB3EF490958095C3
S1131B50709561957F4F8F4F9F4F9923A9F0F92F6F
S1131B6096E9BB279395F695879577956795B795ED
S1131B70F111F8CFFAF4BB0F11F460FF1BC06F5FD3
S1131B807F4F8F4F9F4F16C0882311F096E911C0E5
S1131B90772321F09EE8872F762F05C0662371F006
S1131BA096E8862F70E060E02AF09A95660F771F1A
S1131BB0881FDAF7880F9695879597F9089597F90E
S1131BC09F6780E870E060E008959FEF80EC0895DF
S1131BD000240A9416161706180609060895002408
S1131BE00A9412161306140605060895092E039482
S1131BF0000C11F4882352F0BB0F40F4BF2B11F4F6
S1131C0060FF04C06F5F7F4F8F4F9F4F089557FD54
S1131C109058440F551F59F05F3F71F04795880F56
S1131C2097FB991F61F09F3F79F0879508951216ED
S1131C3013061406551FF2CF4695F1DF08C0161699
S1131C4017061806991FF1CF86957105610508944A
S1131C500895E894BB2766277727CB0197F9089561
S1131C600E94430E0C94F60D0E94E80D38F00E9479
S1131C70EF0D20F0952311F00C94DF0D0C94E50D7D
S1131C8011240C942A0E0E94070E70F3959FC1F341
S1131C90950F50E0551F629FF001729FBB27F00D16
S1131CA0B11D639FAA27F00DB11DAA1F649F66276B
S1131CB0B00DA11D661F829F2227B00DA11D621FBA
S1131CC0739FB00DA11D621F839FA00D611D221F74
S1131CD0749F3327A00D611D231F849F600D211D58
S1131CE0822F762F6A2F11249F5750409AF0F1F0DB
S1131CF088234AF0EE0FFF1FBB1F661F771F881F44
S1131D0091505040A9F79E3F510580F00C94DF0D8F
S1131D100C942A0E5F3FE4F3983ED4F386957795AE
S1131D206795B795F795E7959F5FC1F7FE2B880FE9
S1131D30911D9695879597F90895A1E21A2EAA1BED
S1131D40BB1BFD010DC0AA1FBB1FEE1FFF1FA21767
S1131D50B307E407F50720F0A21BB30BE40BF50B64
S1131D60661F771F881F991F1A9469F760957095ED
S1131D70809590959B01AC01BD01CF010895EE0FB4
S1111D80FF1F0590F491E02D0994F894FFCF15
S1131D8E0D008A010000360300000000FF00000071
S1131D9E00000000000100000100040043414E2039
S1131DAE42555320536869656C6420696E697420CA
S1131DBE6661696C0020496E69742043414E20426D
S1131DCE555320536869656C6420616761696E00C0
S1131DDE43414E2042555320536869656C64206913
S1131DEE6E6974206F6B2100E203780136030200E2
S1131DFE01000201FB018A017C018A0198013A0368
S1131E0E1401000000130201010198013A031801A4
S1131E1E0103003C0B0000010000FFFF456E7465DA
S1131E2E722073657474696E67206D6F64652066C5
S1131E3E61696C0D0A00456E746572207365747465
S1131E4E696E67206D6F6465207375636365737364
S1131E5E200D0A0073657420726174652066616CCE
S1131E6E6C21210D0A0073657420726174652073F0
S1131E7E75636365737321210D0A00456E74657273
S1131E8E204E6F726D616C204D6F646520466169E2
S1131E9E6C21210D0A00456E746572204E6F726DB1
S1131EAE616C204D6F646520537563636573732194
S1131EBE210D0A00426567696E20746F2073657484
S1131ECE204D61736B21210D0A00456E74657220DD
S1131EDE73657474696E67206D6F64652066616CDA
S1131EEE6C0D0A00456E746572206E6F726D616CB6
S1131EFE206D6F64652066616C6C0D0A00736574E9
S1131F0E204D61736B207375636365737321210DAB
S1131F1E0A00426567696E20746F207365742046EB
S1131F2E696C74657221210D0A00456E7465722008
S1131F3E6E6F726D616C206D6F64652066616C6C82
S1131F4E0D0A5365742066696C7465722066616946
S1131F5E6C21210D0A007365742046696C746572D8
S1131F6E207375636365737321210D0A0004104099
S1131F7E040810304050000000000D09480AAD0856
S1131F8EEB087F0899088B086E616E00696E660017
S1071F9E6F766600F0
S9030000FC
